:0800E700020A000002080000FB
:10008F007589017F017E00758AAF758C3CD28C30EB
:10009F008DFDC28CC28D0FBF00010EEF64C94E7073
:0100AF00E66A
:0100B000222D
:1000B100758901E4FFFE758AAF758C3CD28C308D59
:1000C100FDC28CC28D0FBF00010EEF64654E70E65C
:0100D100220C
:1000D200E4F590F5B0D290D29112008FC290C29105
:0500E2001200B180F0E6
:03000000020003F8
:0C000300787FE4F6D8FD75810B02004AFE
:10000F000200D2E493A3F8E493A34003F68001F235
:10001F0008DFF48029E493A3F85407240CC8C333F2
:10002F00C4540F4420C8834004F456800146F6DFC1
:10003F00E4800B01020408102040809000E7E47E6A
:10004F00019360BCA3FF543F30E509541FFEE493B6
:10005F00A360010ECF54C025E060A840B8E493A37D
:10006F00FAE493A3F8E493A3C8C582C8CAC583CAA8
:10007F00F0A3C8C582C8CAC583CADFE9DEE780BE60
:0100EF000010
:00000001FF
