:1000BC00758901E4F508F509AC08AD09EC12007579
:1000CC00E4FBFA79907840120003403CE4F50AF521
:1000DC000BAC0AAD0BEC120075E4FBFA799078408E
:1000EC001200034019758AAF758C3CD28C308DFD93
:1000FC00C28CC28D050BE50B70D7050A80D30509A0
:09010C00E50970B4050880B02279
:10011500758901E4F50AF50BAC0AAD0BEC12007517
:10012500E4FBFA79907840120003403CE4F508F5C9
:1001350009AC08AD09EC120075E4FBFA799078403A
:100145001200034019758AAF758C3CD28C308DFD39
:10015500C28CC28D0509E50970D7050880D3050B4A
:09016500E50B70B4050A80B0221C
:10016E00E4F590F5B0D297D296D2951200BCC29714
:09017E00C296C29512011580EC35
:1000030074F8CC6480CCC86480C8F582046043C3B0
:10001300EB9FF5F0EA9E42F0E99D42F0E89C45F043
:1000230060305018E5825FFFE582F42B5582FB5068
:10003300210ABA001D09B90019088016E5825BFB85
:10004300E582F42F5582FF50090EBE00050DBD0059
:10005300010CC3EB9FF5F0EA9E42F0E99D42F0E804
:0D0063009C45F06007CC4820E701B3EC227B
:1000700075F020800E75F010800575F0087D007E0B
:10008000007F003392D530D5031200AEEC33401020
:10009000EF33FFEE33FEED33FDEC33FCD5F0ED2214
:0E00A000E5F0247EA2D513CC92E7CDCEFF2250
:0300000002018773
:0C018700787FE4F6D8FD75810B02016E54
:0E00AE00C3E49FFFE49EFEE49DFDE49CFC2263
:00000001FF
